{
  "_format": "hh-sol-artifact-1",
  "contractName": "Banker",
  "sourceName": "contracts/Banker.sol",
  "abi": [
    {
      "inputs": [
        {
          "internalType": "address",
          "name": "_verifier",
          "type": "address"
        }
      ],
      "stateMutability": "nonpayable",
      "type": "constructor"
    },
    {
      "inputs": [],
      "name": "claimReward",
      "outputs": [],
      "stateMutability": "nonpayable",
      "type": "function"
    },
    {
      "inputs": [],
      "name": "createGame",
      "outputs": [],
      "stateMutability": "nonpayable",
      "type": "function"
    },
    {
      "inputs": [],
      "name": "currentGameId",
      "outputs": [
        {
          "internalType": "uint128",
          "name": "",
          "type": "uint128"
        }
      ],
      "stateMutability": "view",
      "type": "function"
    },
    {
      "inputs": [],
      "name": "getBounty",
      "outputs": [
        {
          "internalType": "uint256",
          "name": "",
          "type": "uint256"
        }
      ],
      "stateMutability": "view",
      "type": "function"
    },
    {
      "inputs": [
        {
          "internalType": "uint256",
          "name": "y",
          "type": "uint256"
        }
      ],
      "name": "submitBet",
      "outputs": [],
      "stateMutability": "payable",
      "type": "function"
    },
    {
      "inputs": [
        {
          "internalType": "uint256[2]",
          "name": "a",
          "type": "uint256[2]"
        },
        {
          "internalType": "uint256[2][2]",
          "name": "b",
          "type": "uint256[2][2]"
        },
        {
          "internalType": "uint256[2]",
          "name": "c",
          "type": "uint256[2]"
        },
        {
          "internalType": "uint256[3]",
          "name": "input",
          "type": "uint256[3]"
        }
      ],
      "name": "submitProof",
      "outputs": [],
      "stateMutability": "payable",
      "type": "function"
    }
  ],
  "bytecode": "0x60c06040526000600160006101000a8154816fffffffffffffffffffffffffffffffff02191690836fffffffffffffffffffffffffffffffff1602179055503480156200004b57600080fd5b5060405162001acd38038062001acd833981810160405281019062000071919062000152565b60016000819055503373ffffffffffffffffffffffffffffffffffffffff1660808173ffffffffffffffffffffffffffffffffffffffff16815250508073ffffffffffffffffffffffffffffffffffffffff1660a08173ffffffffffffffffffffffffffffffffffffffff16815250505062000184565b600080fd5b600073ffffffffffffffffffffffffffffffffffffffff82169050919050565b60006200011a82620000ed565b9050919050565b6200012c816200010d565b81146200013857600080fd5b50565b6000815190506200014c8162000121565b92915050565b6000602082840312156200016b576200016a620000e8565b5b60006200017b848285016200013b565b91505092915050565b60805160a051611923620001aa600039600061080c0152600061013a01526119236000f3fe6080604052600436106100555760003560e01c8063536a3ddc1461005a5780637255d72914610085578063a82aeb581461009c578063b43412ec146100b8578063b88a802f146100d4578063f49bff7b146100eb575b600080fd5b34801561006657600080fd5b5061006f610116565b60405161007c9190610f69565b60405180910390f35b34801561009157600080fd5b5061009a610138565b005b6100b660048036038101906100b19190610fbf565b610366565b005b6100d260048036038101906100cd9190611057565b61054e565b005b3480156100e057600080fd5b506100e9610b86565b005b3480156100f757600080fd5b50610100610edd565b60405161010d91906110cf565b60405180910390f35b600160009054906101000a90046fffffffffffffffffffffffffffffffff1681565b7f000000000000000000000000000000000000000000000000000000000000000073ffffffffffffffffffffffffffffffffffffffff163373ffffffffffffffffffffffffffffffffffffffff16146101c6576040517f08c379a00000000000000000000000000000000000000000000000000000000081526004016101bd9061116d565b60405180910390fd5b6001600081819054906101000a90046fffffffffffffffffffffffffffffffff16809291906101f4906111bc565b91906101000a8154816fffffffffffffffffffffffffffffffff02191690836fffffffffffffffffffffffffffffffff1602179055505061012c4261023991906111f4565b60026000600160009054906101000a90046fffffffffffffffffffffffffffffffff166fffffffffffffffffffffffffffffffff166fffffffffffffffffffffffffffffffff168152602001908152602001600020600301819055504760026000600160009054906101000a90046fffffffffffffffffffffffffffffffff166fffffffffffffffffffffffffffffffff166fffffffffffffffffffffffffffffffff16815260200190815260200160002060000181905550606460026000600160009054906101000a90046fffffffffffffffffffffffffffffffff166fffffffffffffffffffffffffffffffff166fffffffffffffffffffffffffffffffff16815260200190815260200160002060040160006101000a81548160ff021916908360ff160217905550565b61036e610ee5565b67016345785d8a000034146103b8576040517f08c379a00000000000000000000000000000000000000000000000000000000081526004016103af90611274565b60405180910390fd5b60026000600160009054906101000a90046fffffffffffffffffffffffffffffffff166fffffffffffffffffffffffffffffffff166fffffffffffffffffffffffffffffffff168152602001908152602001600020600301544210610452576040517f08c379a0000000000000000000000000000000000000000000000000000000008152600401610449906112e0565b60405180910390fd5b3460026000600160009054906101000a90046fffffffffffffffffffffffffffffffff166fffffffffffffffffffffffffffffffff166fffffffffffffffffffffffffffffffff16815260200190815260200160002060000160008282546104ba91906111f4565b92505081905550600160026000600160009054906101000a90046fffffffffffffffffffffffffffffffff166fffffffffffffffffffffffffffffffff166fffffffffffffffffffffffffffffffff168152602001908152602001600020600101600083815260200190815260200160002060006101000a81548160ff02191690831515021790555061054b610f34565b50565b610556610ee5565b60026000600160009054906101000a90046fffffffffffffffffffffffffffffffff166fffffffffffffffffffffffffffffffff166fffffffffffffffffffffffffffffffff1681526020019081526020016000206003015442118015610621575061012c60026000600160009054906101000a90046fffffffffffffffffffffffffffffffff166fffffffffffffffffffffffffffffffff166fffffffffffffffffffffffffffffffff1681526020019081526020016000206003015461061e91906111f4565b42105b610660576040517f08c379a00000000000000000000000000000000000000000000000000000000081526004016106579061134c565b60405180910390fd5b6000816000600381106106765761067561136c565b5b602002013590506000826001600381106106935761069261136c565b5b60200201359050600073ffffffffffffffffffffffffffffffffffffffff1660026000600160009054906101000a90046fffffffffffffffffffffffffffffffff166fffffffffffffffffffffffffffffffff166fffffffffffffffffffffffffffffffff16815260200190815260200160002060020160008460ff1660ff16815260200190815260200160002060009054906101000a900473ffffffffffffffffffffffffffffffffffffffff1673ffffffffffffffffffffffffffffffffffffffff1614610798576040517f08c379a000000000000000000000000000000000000000000000000000000000815260040161078f906113e7565b60405180910390fd5b600160ff16821180156107ae5750606460ff1682105b6107ed576040517f08c379a00000000000000000000000000000000000000000000000000000000081526004016107e490611453565b60405180910390fd5b60003373ffffffffffffffffffffffffffffffffffffffff16905060007f000000000000000000000000000000000000000000000000000000000000000073ffffffffffffffffffffffffffffffffffffffff1688888860405180606001604052808981526020018881526020018781525060405160240161087294939291906115f6565b6040516020818303038152906040526311479fea60e01b6020820180517bffffffffffffffffffffffffffffffffffffffffffffffffffffffff83818316178352505050506040516108c491906116ae565b6000604051808303816000865af19150503d8060008114610901576040519150601f19603f3d011682016040523d82523d6000602084013e610906565b606091505b505090508061094a576040517f08c379a000000000000000000000000000000000000000000000000000000000815260040161094190611711565b60405180910390fd5b3360026000600160009054906101000a90046fffffffffffffffffffffffffffffffff166fffffffffffffffffffffffffffffffff166fffffffffffffffffffffffffffffffff16815260200190815260200160002060020160008660ff1660ff16815260200190815260200160002060006101000a81548173ffffffffffffffffffffffffffffffffffffffff021916908373ffffffffffffffffffffffffffffffffffffffff1602179055508360ff1660026000600160009054906101000a90046fffffffffffffffffffffffffffffffff166fffffffffffffffffffffffffffffffff166fffffffffffffffffffffffffffffffff16815260200190815260200160002060040160009054906101000a900460ff1660ff161115610b74578360026000600160009054906101000a90046fffffffffffffffffffffffffffffffff166fffffffffffffffffffffffffffffffff166fffffffffffffffffffffffffffffffff16815260200190815260200160002060040160006101000a81548160ff021916908360ff1602179055503360026000600160009054906101000a90046fffffffffffffffffffffffffffffffff166fffffffffffffffffffffffffffffffff166fffffffffffffffffffffffffffffffff16815260200190815260200160002060040160016101000a81548173ffffffffffffffffffffffffffffffffffffffff021916908373ffffffffffffffffffffffffffffffffffffffff1602179055505b50505050610b80610f34565b50505050565b610b8e610ee5565b61012c60026000600160009054906101000a90046fffffffffffffffffffffffffffffffff166fffffffffffffffffffffffffffffffff166fffffffffffffffffffffffffffffffff16815260200190815260200160002060030154610bf491906111f4565b4211610c35576040517f08c379a0000000000000000000000000000000000000000000000000000000008152600401610c2c9061134c565b60405180910390fd5b3373ffffffffffffffffffffffffffffffffffffffff1660026000600160009054906101000a90046fffffffffffffffffffffffffffffffff166fffffffffffffffffffffffffffffffff166fffffffffffffffffffffffffffffffff168152602001908152602001600020600201600060026000600160009054906101000a90046fffffffffffffffffffffffffffffffff166fffffffffffffffffffffffffffffffff166fffffffffffffffffffffffffffffffff16815260200190815260200160002060040160009054906101000a900460ff1660ff1660ff16815260200190815260200160002060009054906101000a900473ffffffffffffffffffffffffffffffffffffffff1673ffffffffffffffffffffffffffffffffffffffff1614610d97576040517f08c379a0000000000000000000000000000000000000000000000000000000008152600401610d8e9061177d565b60405180910390fd5b600060026000600160009054906101000a90046fffffffffffffffffffffffffffffffff166fffffffffffffffffffffffffffffffff166fffffffffffffffffffffffffffffffff16815260200190815260200160002060040160009054906101000a900460ff1690506000600182610e1091906117aa565b9050600060648260ff1660026000600160009054906101000a90046fffffffffffffffffffffffffffffffff166fffffffffffffffffffffffffffffffff166fffffffffffffffffffffffffffffffff16815260200190815260200160002060000154610e7d91906117df565b610e879190611850565b90503373ffffffffffffffffffffffffffffffffffffffff166108fc829081150290604051600060405180830381858888f19350505050158015610ecf573d6000803e3d6000fd5b50505050610edb610f34565b565b600047905090565b600260005403610f2a576040517f08c379a0000000000000000000000000000000000000000000000000000000008152600401610f21906118cd565b60405180910390fd5b6002600081905550565b6001600081905550565b60006fffffffffffffffffffffffffffffffff82169050919050565b610f6381610f3e565b82525050565b6000602082019050610f7e6000830184610f5a565b92915050565b600080fd5b6000819050919050565b610f9c81610f89565b8114610fa757600080fd5b50565b600081359050610fb981610f93565b92915050565b600060208284031215610fd557610fd4610f84565b5b6000610fe384828501610faa565b91505092915050565b600080fd5b60008190508260206002028201111561100d5761100c610fec565b5b92915050565b60008190508260406002028201111561102f5761102e610fec565b5b92915050565b60008190508260206003028201111561105157611050610fec565b5b92915050565b600080600080610160858703121561107257611071610f84565b5b600061108087828801610ff1565b945050604061109187828801611013565b93505060c06110a287828801610ff1565b9250506101006110b487828801611035565b91505092959194509250565b6110c981610f89565b82525050565b60006020820190506110e460008301846110c0565b92915050565b600082825260208201905092915050565b7f4f6e6c79206f776e65722063616e2063616c6c20746869732066756e6374696f60008201527f6e00000000000000000000000000000000000000000000000000000000000000602082015250565b60006111576021836110ea565b9150611162826110fb565b604082019050919050565b600060208201905081810360008301526111868161114a565b9050919050565b7f4e487b7100000000000000000000000000000000000000000000000000000000600052601160045260246000fd5b60006111c782610f3e565b91506fffffffffffffffffffffffffffffffff82036111e9576111e861118d565b5b600182019050919050565b60006111ff82610f89565b915061120a83610f89565b92508282019050808211156112225761122161118d565b5b92915050565b7f596f75206d7573742062657420302e3120657468657200000000000000000000600082015250565b600061125e6016836110ea565b915061126982611228565b602082019050919050565b6000602082019050818103600083015261128d81611251565b9050919050565b7f5468652067616d65206973206f76657200000000000000000000000000000000600082015250565b60006112ca6010836110ea565b91506112d582611294565b602082019050919050565b600060208201905081810360008301526112f9816112bd565b9050919050565b7f5468652067616d65206973206e6f74206f766572000000000000000000000000600082015250565b60006113366014836110ea565b915061134182611300565b602082019050919050565b6000602082019050818103600083015261136581611329565b9050919050565b7f4e487b7100000000000000000000000000000000000000000000000000000000600052603260045260246000fd5b7f42657420616c7265616479207375626d69747465640000000000000000000000600082015250565b60006113d16015836110ea565b91506113dc8261139b565b602082019050919050565b60006020820190508181036000830152611400816113c4565b9050919050565b7f496e76616c696420626574000000000000000000000000000000000000000000600082015250565b600061143d600b836110ea565b915061144882611407565b602082019050919050565b6000602082019050818103600083015261146c81611430565b9050919050565b82818337505050565b61148860408383611473565b5050565b600060029050919050565b600081905092915050565b6000819050919050565b6114b860408383611473565b5050565b60006114c883836114ac565b60408301905092915050565b600082905092915050565b6000604082019050919050565b6114f58161148c565b6114ff8184611497565b925061150a826114a2565b8060005b838110156115435761152082846114d4565b61152a87826114bc565b9650611535836114df565b92505060018101905061150e565b505050505050565b600060039050919050565b600081905092915050565b6000819050919050565b61157481610f89565b82525050565b6000611586838361156b565b60208301905092915050565b6000602082019050919050565b6115a88161154b565b6115b28184611556565b92506115bd82611561565b8060005b838110156115ee5781516115d5878261157a565b96506115e083611592565b9250506001810190506115c1565b505050505050565b60006101608201905061160c600083018761147c565b61161960408301866114ec565b61162660c083018561147c565b61163461010083018461159f565b95945050505050565b600081519050919050565b600081905092915050565b60005b83811015611671578082015181840152602081019050611656565b60008484015250505050565b60006116888261163d565b6116928185611648565b93506116a2818560208601611653565b80840191505092915050565b60006116ba828461167d565b915081905092915050565b7f496e76616c69642070726f6f6600000000000000000000000000000000000000600082015250565b60006116fb600d836110ea565b9150611706826116c5565b602082019050919050565b6000602082019050818103600083015261172a816116ee565b9050919050565b7f596f7520617265206e6f74207468652077696e6e657200000000000000000000600082015250565b60006117676016836110ea565b915061177282611731565b602082019050919050565b600060208201905081810360008301526117968161175a565b9050919050565b600060ff82169050919050565b60006117b58261179d565b91506117c08361179d565b9250828203905060ff8111156117d9576117d861118d565b5b92915050565b60006117ea82610f89565b91506117f583610f89565b925082820261180381610f89565b9150828204841483151761181a5761181961118d565b5b5092915050565b7f4e487b7100000000000000000000000000000000000000000000000000000000600052601260045260246000fd5b600061185b82610f89565b915061186683610f89565b92508261187657611875611821565b5b828204905092915050565b7f5265656e7472616e637947756172643a207265656e7472616e742063616c6c00600082015250565b60006118b7601f836110ea565b91506118c282611881565b602082019050919050565b600060208201905081810360008301526118e6816118aa565b905091905056fea2646970667358221220a168e6b384f24c2bbb8e655d1772f311d5f1700df3f0b37ced7d63630684ca1c64736f6c63430008180033",
  "linkReferences": {},
  "deployedLinkReferences": {}
}