{
    "_format": "hh-sol-artifact-1",
    "contractName": "Banker",
    "sourceName": "contracts/Banker.sol",
    "abi": [
        {
            "inputs": [
                {
                    "internalType": "address",
                    "name": "_verifier",
                    "type": "address"
                }
            ],
            "stateMutability": "nonpayable",
            "type": "constructor"
        },
        {
            "inputs": [],
            "name": "claimReward",
            "outputs": [],
            "stateMutability": "nonpayable",
            "type": "function"
        },
        {
            "inputs": [],
            "name": "createGame",
            "outputs": [],
            "stateMutability": "nonpayable",
            "type": "function"
        },
        {
            "inputs": [],
            "name": "currentGameId",
            "outputs": [
                {
                    "internalType": "uint128",
                    "name": "",
                    "type": "uint128"
                }
            ],
            "stateMutability": "view",
            "type": "function"
        },
        {
            "inputs": [],
            "name": "getBounty",
            "outputs": [
                {
                    "internalType": "uint256",
                    "name": "",
                    "type": "uint256"
                }
            ],
            "stateMutability": "view",
            "type": "function"
        },
        {
            "inputs": [
                {
                    "internalType": "uint256",
                    "name": "y",
                    "type": "uint256"
                }
            ],
            "name": "submitBet",
            "outputs": [],
            "stateMutability": "payable",
            "type": "function"
        },
        {
            "inputs": [
                {
                    "internalType": "uint256[2]",
                    "name": "a",
                    "type": "uint256[2]"
                },
                {
                    "internalType": "uint256[2][2]",
                    "name": "b",
                    "type": "uint256[2][2]"
                },
                {
                    "internalType": "uint256[2]",
                    "name": "c",
                    "type": "uint256[2]"
                },
                {
                    "internalType": "uint256[3]",
                    "name": "input",
                    "type": "uint256[3]"
                }
            ],
            "name": "submitProof",
            "outputs": [],
            "stateMutability": "payable",
            "type": "function"
        }
    ],
    "bytecode": "0x60c06040526000600160006101000a8154816fffffffffffffffffffffffffffffffff02191690836fffffffffffffffffffffffffffffffff1602179055503480156200004b57600080fd5b5060405162001a5038038062001a50833981810160405281019062000071919062000152565b60016000819055503373ffffffffffffffffffffffffffffffffffffffff1660808173ffffffffffffffffffffffffffffffffffffffff16815250508073ffffffffffffffffffffffffffffffffffffffff1660a08173ffffffffffffffffffffffffffffffffffffffff16815250505062000184565b600080fd5b600073ffffffffffffffffffffffffffffffffffffffff82169050919050565b60006200011a82620000ed565b9050919050565b6200012c816200010d565b81146200013857600080fd5b50565b6000815190506200014c8162000121565b92915050565b6000602082840312156200016b576200016a620000e8565b5b60006200017b848285016200013b565b91505092915050565b60805160a0516118a6620001aa600039600061079c0152600061013a01526118a66000f3fe6080604052600436106100555760003560e01c8063536a3ddc1461005a5780637255d72914610085578063a82aeb581461009c578063b43412ec146100b8578063b88a802f146100d4578063f49bff7b146100eb575b600080fd5b34801561006657600080fd5b5061006f610116565b60405161007c9190610eec565b60405180910390f35b34801561009157600080fd5b5061009a610138565b005b6100b660048036038101906100b19190610f42565b610366565b005b6100d260048036038101906100cd9190610fda565b61054e565b005b3480156100e057600080fd5b506100e9610b16565b005b3480156100f757600080fd5b50610100610e60565b60405161010d9190611052565b60405180910390f35b600160009054906101000a90046fffffffffffffffffffffffffffffffff1681565b7f000000000000000000000000000000000000000000000000000000000000000073ffffffffffffffffffffffffffffffffffffffff163373ffffffffffffffffffffffffffffffffffffffff16146101c6576040517f08c379a00000000000000000000000000000000000000000000000000000000081526004016101bd906110f0565b60405180910390fd5b6001600081819054906101000a90046fffffffffffffffffffffffffffffffff16809291906101f49061113f565b91906101000a8154816fffffffffffffffffffffffffffffffff02191690836fffffffffffffffffffffffffffffffff16021790555050610258426102399190611177565b60026000600160009054906101000a90046fffffffffffffffffffffffffffffffff166fffffffffffffffffffffffffffffffff166fffffffffffffffffffffffffffffffff168152602001908152602001600020600301819055504760026000600160009054906101000a90046fffffffffffffffffffffffffffffffff166fffffffffffffffffffffffffffffffff166fffffffffffffffffffffffffffffffff16815260200190815260200160002060000181905550606460026000600160009054906101000a90046fffffffffffffffffffffffffffffffff166fffffffffffffffffffffffffffffffff166fffffffffffffffffffffffffffffffff16815260200190815260200160002060040160006101000a81548160ff021916908360ff160217905550565b61036e610e68565b67016345785d8a000034146103b8576040517f08c379a00000000000000000000000000000000000000000000000000000000081526004016103af906111f7565b60405180910390fd5b60026000600160009054906101000a90046fffffffffffffffffffffffffffffffff166fffffffffffffffffffffffffffffffff166fffffffffffffffffffffffffffffffff168152602001908152602001600020600301544210610452576040517f08c379a000000000000000000000000000000000000000000000000000000000815260040161044990611263565b60405180910390fd5b3460026000600160009054906101000a90046fffffffffffffffffffffffffffffffff166fffffffffffffffffffffffffffffffff166fffffffffffffffffffffffffffffffff16815260200190815260200160002060000160008282546104ba9190611177565b92505081905550600160026000600160009054906101000a90046fffffffffffffffffffffffffffffffff166fffffffffffffffffffffffffffffffff166fffffffffffffffffffffffffffffffff168152602001908152602001600020600101600083815260200190815260200160002060006101000a81548160ff02191690831515021790555061054b610eb7565b50565b610556610e68565b60026000600160009054906101000a90046fffffffffffffffffffffffffffffffff166fffffffffffffffffffffffffffffffff166fffffffffffffffffffffffffffffffff1681526020019081526020016000206003015442116105f0576040517f08c379a00000000000000000000000000000000000000000000000000000000081526004016105e7906112cf565b60405180910390fd5b600081600060038110610606576106056112ef565b5b60200201359050600082600160038110610623576106226112ef565b5b60200201359050600073ffffffffffffffffffffffffffffffffffffffff1660026000600160009054906101000a90046fffffffffffffffffffffffffffffffff166fffffffffffffffffffffffffffffffff166fffffffffffffffffffffffffffffffff16815260200190815260200160002060020160008460ff1660ff16815260200190815260200160002060009054906101000a900473ffffffffffffffffffffffffffffffffffffffff1673ffffffffffffffffffffffffffffffffffffffff1603610728576040517f08c379a000000000000000000000000000000000000000000000000000000000815260040161071f9061136a565b60405180910390fd5b600160ff168211801561073e5750606460ff1682105b61077d576040517f08c379a0000000000000000000000000000000000000000000000000000000008152600401610774906113d6565b60405180910390fd5b60003373ffffffffffffffffffffffffffffffffffffffff16905060007f000000000000000000000000000000000000000000000000000000000000000073ffffffffffffffffffffffffffffffffffffffff168888886040518060600160405280898152602001888152602001878152506040516024016108029493929190611579565b6040516020818303038152906040526311479fea60e01b6020820180517bffffffffffffffffffffffffffffffffffffffffffffffffffffffff83818316178352505050506040516108549190611631565b6000604051808303816000865af19150503d8060008114610891576040519150601f19603f3d011682016040523d82523d6000602084013e610896565b606091505b50509050806108da576040517f08c379a00000000000000000000000000000000000000000000000000000000081526004016108d190611694565b60405180910390fd5b3360026000600160009054906101000a90046fffffffffffffffffffffffffffffffff166fffffffffffffffffffffffffffffffff166fffffffffffffffffffffffffffffffff16815260200190815260200160002060020160008660ff1660ff16815260200190815260200160002060006101000a81548173ffffffffffffffffffffffffffffffffffffffff021916908373ffffffffffffffffffffffffffffffffffffffff1602179055508360ff1660026000600160009054906101000a90046fffffffffffffffffffffffffffffffff166fffffffffffffffffffffffffffffffff166fffffffffffffffffffffffffffffffff16815260200190815260200160002060040160009054906101000a900460ff1660ff161115610b04578360026000600160009054906101000a90046fffffffffffffffffffffffffffffffff166fffffffffffffffffffffffffffffffff166fffffffffffffffffffffffffffffffff16815260200190815260200160002060040160006101000a81548160ff021916908360ff1602179055503360026000600160009054906101000a90046fffffffffffffffffffffffffffffffff166fffffffffffffffffffffffffffffffff166fffffffffffffffffffffffffffffffff16815260200190815260200160002060040160016101000a81548173ffffffffffffffffffffffffffffffffffffffff021916908373ffffffffffffffffffffffffffffffffffffffff1602179055505b50505050610b10610eb7565b50505050565b610b1e610e68565b60026000600160009054906101000a90046fffffffffffffffffffffffffffffffff166fffffffffffffffffffffffffffffffff166fffffffffffffffffffffffffffffffff168152602001908152602001600020600301544211610bb8576040517f08c379a0000000000000000000000000000000000000000000000000000000008152600401610baf906112cf565b60405180910390fd5b3373ffffffffffffffffffffffffffffffffffffffff1660026000600160009054906101000a90046fffffffffffffffffffffffffffffffff166fffffffffffffffffffffffffffffffff166fffffffffffffffffffffffffffffffff168152602001908152602001600020600201600060026000600160009054906101000a90046fffffffffffffffffffffffffffffffff166fffffffffffffffffffffffffffffffff166fffffffffffffffffffffffffffffffff16815260200190815260200160002060040160009054906101000a900460ff1660ff1660ff16815260200190815260200160002060009054906101000a900473ffffffffffffffffffffffffffffffffffffffff1673ffffffffffffffffffffffffffffffffffffffff1614610d1a576040517f08c379a0000000000000000000000000000000000000000000000000000000008152600401610d1190611700565b60405180910390fd5b600060026000600160009054906101000a90046fffffffffffffffffffffffffffffffff166fffffffffffffffffffffffffffffffff166fffffffffffffffffffffffffffffffff16815260200190815260200160002060040160009054906101000a900460ff1690506000600182610d93919061172d565b9050600060648260ff1660026000600160009054906101000a90046fffffffffffffffffffffffffffffffff166fffffffffffffffffffffffffffffffff166fffffffffffffffffffffffffffffffff16815260200190815260200160002060000154610e009190611762565b610e0a91906117d3565b90503373ffffffffffffffffffffffffffffffffffffffff166108fc829081150290604051600060405180830381858888f19350505050158015610e52573d6000803e3d6000fd5b50505050610e5e610eb7565b565b600047905090565b600260005403610ead576040517f08c379a0000000000000000000000000000000000000000000000000000000008152600401610ea490611850565b60405180910390fd5b6002600081905550565b6001600081905550565b60006fffffffffffffffffffffffffffffffff82169050919050565b610ee681610ec1565b82525050565b6000602082019050610f016000830184610edd565b92915050565b600080fd5b6000819050919050565b610f1f81610f0c565b8114610f2a57600080fd5b50565b600081359050610f3c81610f16565b92915050565b600060208284031215610f5857610f57610f07565b5b6000610f6684828501610f2d565b91505092915050565b600080fd5b600081905082602060020282011115610f9057610f8f610f6f565b5b92915050565b600081905082604060020282011115610fb257610fb1610f6f565b5b92915050565b600081905082602060030282011115610fd457610fd3610f6f565b5b92915050565b6000806000806101608587031215610ff557610ff4610f07565b5b600061100387828801610f74565b945050604061101487828801610f96565b93505060c061102587828801610f74565b92505061010061103787828801610fb8565b91505092959194509250565b61104c81610f0c565b82525050565b60006020820190506110676000830184611043565b92915050565b600082825260208201905092915050565b7f4f6e6c79206f776e65722063616e2063616c6c20746869732066756e6374696f60008201527f6e00000000000000000000000000000000000000000000000000000000000000602082015250565b60006110da60218361106d565b91506110e58261107e565b604082019050919050565b60006020820190508181036000830152611109816110cd565b9050919050565b7f4e487b7100000000000000000000000000000000000000000000000000000000600052601160045260246000fd5b600061114a82610ec1565b91506fffffffffffffffffffffffffffffffff820361116c5761116b611110565b5b600182019050919050565b600061118282610f0c565b915061118d83610f0c565b92508282019050808211156111a5576111a4611110565b5b92915050565b7f596f75206d7573742062657420302e3120657468657200000000000000000000600082015250565b60006111e160168361106d565b91506111ec826111ab565b602082019050919050565b60006020820190508181036000830152611210816111d4565b9050919050565b7f5468652067616d65206973206f76657200000000000000000000000000000000600082015250565b600061124d60108361106d565b915061125882611217565b602082019050919050565b6000602082019050818103600083015261127c81611240565b9050919050565b7f5468652067616d65206973206e6f74206f766572000000000000000000000000600082015250565b60006112b960148361106d565b91506112c482611283565b602082019050919050565b600060208201905081810360008301526112e8816112ac565b9050919050565b7f4e487b7100000000000000000000000000000000000000000000000000000000600052603260045260246000fd5b7f42657420616c7265616479207375626d69747465640000000000000000000000600082015250565b600061135460158361106d565b915061135f8261131e565b602082019050919050565b6000602082019050818103600083015261138381611347565b9050919050565b7f496e76616c696420626574000000000000000000000000000000000000000000600082015250565b60006113c0600b8361106d565b91506113cb8261138a565b602082019050919050565b600060208201905081810360008301526113ef816113b3565b9050919050565b82818337505050565b61140b604083836113f6565b5050565b600060029050919050565b600081905092915050565b6000819050919050565b61143b604083836113f6565b5050565b600061144b838361142f565b60408301905092915050565b600082905092915050565b6000604082019050919050565b6114788161140f565b611482818461141a565b925061148d82611425565b8060005b838110156114c6576114a38284611457565b6114ad878261143f565b96506114b883611462565b925050600181019050611491565b505050505050565b600060039050919050565b600081905092915050565b6000819050919050565b6114f781610f0c565b82525050565b600061150983836114ee565b60208301905092915050565b6000602082019050919050565b61152b816114ce565b61153581846114d9565b9250611540826114e4565b8060005b8381101561157157815161155887826114fd565b965061156383611515565b925050600181019050611544565b505050505050565b60006101608201905061158f60008301876113ff565b61159c604083018661146f565b6115a960c08301856113ff565b6115b7610100830184611522565b95945050505050565b600081519050919050565b600081905092915050565b60005b838110156115f45780820151818401526020810190506115d9565b60008484015250505050565b600061160b826115c0565b61161581856115cb565b93506116258185602086016115d6565b80840191505092915050565b600061163d8284611600565b915081905092915050565b7f496e76616c69642070726f6f6600000000000000000000000000000000000000600082015250565b600061167e600d8361106d565b915061168982611648565b602082019050919050565b600060208201905081810360008301526116ad81611671565b9050919050565b7f596f7520617265206e6f74207468652077696e6e657200000000000000000000600082015250565b60006116ea60168361106d565b91506116f5826116b4565b602082019050919050565b60006020820190508181036000830152611719816116dd565b9050919050565b600060ff82169050919050565b600061173882611720565b915061174383611720565b9250828203905060ff81111561175c5761175b611110565b5b92915050565b600061176d82610f0c565b915061177883610f0c565b925082820261178681610f0c565b9150828204841483151761179d5761179c611110565b5b5092915050565b7f4e487b7100000000000000000000000000000000000000000000000000000000600052601260045260246000fd5b60006117de82610f0c565b91506117e983610f0c565b9250826117f9576117f86117a4565b5b828204905092915050565b7f5265656e7472616e637947756172643a207265656e7472616e742063616c6c00600082015250565b600061183a601f8361106d565b915061184582611804565b602082019050919050565b600060208201905081810360008301526118698161182d565b905091905056fea26469706673582212202fbd5949ee98f8c2a6d1191dd4af856f935c95e79dbc7f0d13ce5ac1bd5af62764736f6c63430008180033",
    "linkReferences": {},
    "deployedLinkReferences": {}
}