{
    "_format": "hh-sol-artifact-1",
    "contractName": "Tornado",
    "sourceName": "contracts/Tornado.sol",
    "abi": [
        {
            "inputs": [
                {
                    "internalType": "address",
                    "name": "_hasher",
                    "type": "address"
                }
            ],
            "stateMutability": "nonpayable",
            "type": "constructor"
        },
        {
            "anonymous": false,
            "inputs": [
                {
                    "indexed": false,
                    "internalType": "uint256",
                    "name": "root",
                    "type": "uint256"
                },
                {
                    "indexed": false,
                    "internalType": "uint256[10]",
                    "name": "hashPairings",
                    "type": "uint256[10]"
                },
                {
                    "indexed": false,
                    "internalType": "uint8[10]",
                    "name": "pairDirection",
                    "type": "uint8[10]"
                }
            ],
            "name": "Deposit",
            "type": "event"
        },
        {
            "anonymous": false,
            "inputs": [
                {
                    "indexed": false,
                    "internalType": "address",
                    "name": "to",
                    "type": "address"
                },
                {
                    "indexed": false,
                    "internalType": "uint256",
                    "name": "nullifierHash",
                    "type": "uint256"
                }
            ],
            "name": "Withdrawal",
            "type": "event"
        },
        {
            "inputs": [
                {
                    "internalType": "uint256",
                    "name": "",
                    "type": "uint256"
                }
            ],
            "name": "commitments",
            "outputs": [
                {
                    "internalType": "bool",
                    "name": "",
                    "type": "bool"
                }
            ],
            "stateMutability": "view",
            "type": "function"
        },
        {
            "inputs": [],
            "name": "denomination",
            "outputs": [
                {
                    "internalType": "uint256",
                    "name": "",
                    "type": "uint256"
                }
            ],
            "stateMutability": "view",
            "type": "function"
        },
        {
            "inputs": [
                {
                    "internalType": "uint256",
                    "name": "_commitment",
                    "type": "uint256"
                }
            ],
            "name": "deposit",
            "outputs": [],
            "stateMutability": "payable",
            "type": "function"
        },
        {
            "inputs": [],
            "name": "nextLeafIdx",
            "outputs": [
                {
                    "internalType": "uint256",
                    "name": "",
                    "type": "uint256"
                }
            ],
            "stateMutability": "view",
            "type": "function"
        },
        {
            "inputs": [
                {
                    "internalType": "uint256",
                    "name": "",
                    "type": "uint256"
                }
            ],
            "name": "nullifierHashes",
            "outputs": [
                {
                    "internalType": "bool",
                    "name": "",
                    "type": "bool"
                }
            ],
            "stateMutability": "view",
            "type": "function"
        },
        {
            "inputs": [
                {
                    "internalType": "uint256",
                    "name": "",
                    "type": "uint256"
                }
            ],
            "name": "roots",
            "outputs": [
                {
                    "internalType": "bool",
                    "name": "",
                    "type": "bool"
                }
            ],
            "stateMutability": "view",
            "type": "function"
        },
        {
            "inputs": [],
            "name": "treeLevel",
            "outputs": [
                {
                    "internalType": "uint8",
                    "name": "",
                    "type": "uint8"
                }
            ],
            "stateMutability": "view",
            "type": "function"
        }
    ],
    "bytecode": "0x6080604052600a600260146101000a81548160ff021916908360ff16021790555067016345785d8a000060035560006004556040518061014001604052807f33418cd1669b4e7f4bf473ec2db9a489b3d6f9f11b91d0b3b6004432ab53d60b81526020017f350ffb7c45ccf8940c163b192252495b614def57272b6f8d9a53a5b3e44ef8bd81526020017fc8acb7af851baf91a82b1ad46b01ac506ce80387170890dea377d21e8520258481526020017f5171d273154b2764aa5903210e16bd1899b18648d1358d41887a113227e9acc581526020017f986c06cb04d613f57cf7a1da410e0f22c794e1ec1ae125898cfc9662a5e5be5981526020017f6eb9a05106eff3031621027680204b2e9326b0e5191bd62f3cd7bf7f6d94d02781526020017fa1cbc8691493398c061f547b4882edbb6a38ce1730c8a2605e9d8138d4ad122681526020017f850aa72f3d8bc65181e9c29d76f7614e2f939ade9442abac29fc8a0329deeffd81526020017fe9c6f678752dbfc89028bf8b9b1cce608b34b742b75fbae878ec2c6ae803dc1e81526020017fa9e22c2e1f4531bc4389032bb472b97c25a7298d27ba4fefd75439a1be46f77f815250600990600a620001c99291906200024d565b50348015620001d757600080fd5b50604051620012fe380380620012fe8339818101604052810190620001fd91906200031b565b600160008190555080600260006101000a81548173ffffffffffffffffffffffffffffffffffffffff021916908373ffffffffffffffffffffffffffffffffffffffff160217905550506200034d565b82600a81019282156200027f579160200282015b828111156200027e57825182559160200191906001019062000261565b5b5090506200028e919062000292565b5090565b5b80821115620002ad57600081600090555060010162000293565b5090565b600080fd5b600073ffffffffffffffffffffffffffffffffffffffff82169050919050565b6000620002e382620002b6565b9050919050565b620002f581620002d6565b81146200030157600080fd5b50565b6000815190506200031581620002ea565b92915050565b600060208284031215620003345762000333620002b1565b5b6000620003448482850162000304565b91505092915050565b610fa1806200035d6000396000f3fe6080604052600436106100705760003560e01c80638bca6d161161004e5780638bca6d161461011a578063b6b55f2514610145578063b8e7956414610161578063c2b40ae41461018c57610070565b80631f79a1e91461007557806345e0523f146100b257806349ce8997146100dd575b600080fd5b34801561008157600080fd5b5061009c6004803603810190610097919061079e565b6101c9565b6040516100a991906107e6565b60405180910390f35b3480156100be57600080fd5b506100c76101e9565b6040516100d49190610810565b60405180910390f35b3480156100e957600080fd5b5061010460048036038101906100ff919061079e565b6101ef565b60405161011191906107e6565b60405180910390f35b34801561012657600080fd5b5061012f61020f565b60405161013c9190610810565b60405180910390f35b61015f600480360381019061015a919061079e565b610215565b005b34801561016d57600080fd5b5061017661066f565b6040516101839190610847565b60405180910390f35b34801561019857600080fd5b506101b360048036038101906101ae919061079e565b610682565b6040516101c091906107e6565b60405180910390f35b60076020528060005260406000206000915054906101000a900460ff1681565b60045481565b60086020528060005260406000206000915054906101000a900460ff1681565b60035481565b61021d6106a2565b6003543414610261576040517f08c379a0000000000000000000000000000000000000000000000000000000008152600401610258906108bf565b60405180910390fd5b6008600082815260200190815260200160002060009054906101000a900460ff16156102c2576040517f08c379a00000000000000000000000000000000000000000000000000000000081526004016102b99061092b565b60405180910390fd5b600260149054906101000a900460ff1660026102de9190610aad565b60045410610321576040517f08c379a000000000000000000000000000000000000000000000000000000000815260040161031890610b44565b60405180910390fd5b600061032b6106fb565b61033361071e565b60006004549050600085905060008061034a610741565b60005b600260149054906101000a900460ff1660ff168160ff1610156105ab5760006002876103799190610b93565b036104025784935060098160ff16600a811061039857610397610bc4565b5b0154925060098160ff16600a81106103b3576103b2610bc4565b5b0154888260ff16600a81106103cb576103ca610bc4565b5b6020020181815250506000878260ff16600a81106103ec576103eb610bc4565b5b602002019060ff16908160ff1681525050610484565b600660008260ff1660ff168152602001908152602001600020549350849250600660008260ff1660ff16815260200190815260200160002054888260ff16600a811061045157610450610bc4565b5b6020020181815250506001878260ff16600a811061047257610471610bc4565b5b602002019060ff16908160ff16815250505b84600660008360ff1660ff1681526020019081526020016000208190555083826000600281106104b7576104b6610bc4565b5b60200201818152505082826001600281106104d5576104d4610bc4565b5b6020020181815250506000600260009054906101000a900473ffffffffffffffffffffffffffffffffffffffff1673ffffffffffffffffffffffffffffffffffffffff1663d622e5a4620249f0858e6040518463ffffffff1660e01b8152600401610541929190610c9e565b6020604051808303818786fa15801561055e573d6000803e3d6000fd5b50505050506040513d601f19601f820116820180604052508101906105839190610cdc565b90508095506002876105959190610d09565b96505080806105a390610d3a565b91505061034d565b508397506001600560008a815260200190815260200160002060006101000a81548160ff0219169083151502179055506001600460008282546105ee9190610d63565b925050819055506001600860008b815260200190815260200160002060006101000a81548160ff0219169083151502179055507fe6ab8667cb740d6c65a4ad321c031eb42f6c5085d5753238d1b2e1e370c1348388888860405161065493929190610ec6565b60405180910390a1505050505050505061066c6106f1565b50565b600260149054906101000a900460ff1681565b60056020528060005260406000206000915054906101000a900460ff1681565b6002600054036106e7576040517f08c379a00000000000000000000000000000000000000000000000000000000081526004016106de90610f4b565b60405180910390fd5b6002600081905550565b6001600081905550565b604051806101400160405280600a90602082028036833780820191505090505090565b604051806101400160405280600a90602082028036833780820191505090505090565b6040518060400160405280600290602082028036833780820191505090505090565b600080fd5b6000819050919050565b61077b81610768565b811461078657600080fd5b50565b60008135905061079881610772565b92915050565b6000602082840312156107b4576107b3610763565b5b60006107c284828501610789565b91505092915050565b60008115159050919050565b6107e0816107cb565b82525050565b60006020820190506107fb60008301846107d7565b92915050565b61080a81610768565b82525050565b60006020820190506108256000830184610801565b92915050565b600060ff82169050919050565b6108418161082b565b82525050565b600060208201905061085c6000830184610838565b92915050565b600082825260208201905092915050565b7f696e636f72726563742d616d6f756e7400000000000000000000000000000000600082015250565b60006108a9601083610862565b91506108b482610873565b602082019050919050565b600060208201905081810360008301526108d88161089c565b9050919050565b7f6578697374696e672d636f6d6d69746d656e7400000000000000000000000000600082015250565b6000610915601383610862565b9150610920826108df565b602082019050919050565b6000602082019050818103600083015261094481610908565b9050919050565b7f4e487b7100000000000000000000000000000000000000000000000000000000600052601160045260246000fd5b60008160011c9050919050565b6000808291508390505b60018511156109d1578086048111156109ad576109ac61094b565b5b60018516156109bc5780820291505b80810290506109ca8561097a565b9450610991565b94509492505050565b6000826109ea5760019050610aa6565b816109f85760009050610aa6565b8160018114610a0e5760028114610a1857610a47565b6001915050610aa6565b60ff841115610a2a57610a2961094b565b5b8360020a915084821115610a4157610a4061094b565b5b50610aa6565b5060208310610133831016604e8410600b8410161715610a7c5782820a905083811115610a7757610a7661094b565b5b610aa6565b610a898484846001610987565b92509050818404811115610aa057610a9f61094b565b5b81810290505b9392505050565b6000610ab882610768565b9150610ac38361082b565b9250610af07fffffffffffffffffffffffffffffffffffffffffffffffffffffffffffffffff84846109da565b905092915050565b7f747265652d66756c6c0000000000000000000000000000000000000000000000600082015250565b6000610b2e600983610862565b9150610b3982610af8565b602082019050919050565b60006020820190508181036000830152610b5d81610b21565b9050919050565b7f4e487b7100000000000000000000000000000000000000000000000000000000600052601260045260246000fd5b6000610b9e82610768565b9150610ba983610768565b925082610bb957610bb8610b64565b5b828206905092915050565b7f4e487b7100000000000000000000000000000000000000000000000000000000600052603260045260246000fd5b600060029050919050565b600081905092915050565b6000819050919050565b610c1c81610768565b82525050565b6000610c2e8383610c13565b60208301905092915050565b6000602082019050919050565b610c5081610bf3565b610c5a8184610bfe565b9250610c6582610c09565b8060005b83811015610c96578151610c7d8782610c22565b9650610c8883610c3a565b925050600181019050610c69565b505050505050565b6000606082019050610cb36000830185610c47565b610cc06040830184610801565b9392505050565b600081519050610cd681610772565b92915050565b600060208284031215610cf257610cf1610763565b5b6000610d0084828501610cc7565b91505092915050565b6000610d1482610768565b9150610d1f83610768565b925082610d2f57610d2e610b64565b5b828204905092915050565b6000610d458261082b565b915060ff8203610d5857610d5761094b565b5b600182019050919050565b6000610d6e82610768565b9150610d7983610768565b9250828201905080821115610d9157610d9061094b565b5b92915050565b6000600a9050919050565b600081905092915050565b6000819050919050565b6000602082019050919050565b610dcd81610d97565b610dd78184610da2565b9250610de282610dad565b8060005b83811015610e13578151610dfa8782610c22565b9650610e0583610db7565b925050600181019050610de6565b505050505050565b6000600a9050919050565b600081905092915050565b6000819050919050565b610e448161082b565b82525050565b6000610e568383610e3b565b60208301905092915050565b6000602082019050919050565b610e7881610e1b565b610e828184610e26565b9250610e8d82610e31565b8060005b83811015610ebe578151610ea58782610e4a565b9650610eb083610e62565b925050600181019050610e91565b505050505050565b60006102a082019050610edc6000830186610801565b610ee96020830185610dc4565b610ef7610160830184610e6f565b949350505050565b7f5265656e7472616e637947756172643a207265656e7472616e742063616c6c00600082015250565b6000610f35601f83610862565b9150610f4082610eff565b602082019050919050565b60006020820190508181036000830152610f6481610f28565b905091905056fea26469706673582212202aed18cfdb86483a2433a03f3953ad174d62f0608bbb9f7442d8cb3ad60e216264736f6c63430008110033",
    "linkReferences": {},
    "deployedLinkReferences": {}
}